{"abi":[{"type":"constructor","inputs":[],"stateMutability":"nonpayable"},{"type":"function","name":"checkBishopValidMoves","inputs":[{"name":"gameState","type":"uint256","internalType":"uint256"},{"name":"fromPos","type":"uint8","internalType":"uint8"},{"name":"playerState","type":"uint32","internalType":"uint32"},{"name":"currentTurnBlack","type":"bool","internalType":"bool"}],"outputs":[{"name":"","type":"bool","internalType":"bool"}],"stateMutability":"pure"},{"type":"function","name":"checkEndgame","inputs":[{"name":"gameState","type":"uint256","internalType":"uint256"},{"name":"playerState","type":"uint32","internalType":"uint32"},{"name":"opponentState","type":"uint32","internalType":"uint32"}],"outputs":[{"name":"","type":"uint8","internalType":"uint8"}],"stateMutability":"pure"},{"type":"function","name":"checkForCheck","inputs":[{"name":"gameState","type":"uint256","internalType":"uint256"},{"name":"playerState","type":"uint32","internalType":"uint32"}],"outputs":[{"name":"","type":"bool","internalType":"bool"}],"stateMutability":"pure"},{"type":"function","name":"checkGame","inputs":[{"name":"startingGameState","type":"uint256","internalType":"uint256"},{"name":"startingPlayerState","type":"uint32","internalType":"uint32"},{"name":"startingOpponentState","type":"uint32","internalType":"uint32"},{"name":"startingTurnBlack","type":"bool","internalType":"bool"},{"name":"moves","type":"uint16[]","internalType":"uint16[]"}],"outputs":[{"name":"outcome","type":"uint8","internalType":"uint8"},{"name":"gameState","type":"uint256","internalType":"uint256"},{"name":"playerState","type":"uint32","internalType":"uint32"},{"name":"opponentState","type":"uint32","internalType":"uint32"}],"stateMutability":"pure"},{"type":"function","name":"checkGameFromStart","inputs":[{"name":"moves","type":"uint16[]","internalType":"uint16[]"}],"outputs":[{"name":"","type":"uint8","internalType":"uint8"},{"name":"","type":"uint256","internalType":"uint256"},{"name":"","type":"uint32","internalType":"uint32"},{"name":"","type":"uint32","internalType":"uint32"}],"stateMutability":"pure"},{"type":"function","name":"checkKingValidMoves","inputs":[{"name":"gameState","type":"uint256","internalType":"uint256"},{"name":"fromPos","type":"uint8","internalType":"uint8"},{"name":"playerState","type":"uint32","internalType":"uint32"},{"name":"currentTurnBlack","type":"bool","internalType":"bool"}],"outputs":[{"name":"","type":"bool","internalType":"bool"}],"stateMutability":"pure"},{"type":"function","name":"checkKnightValidMoves","inputs":[{"name":"gameState","type":"uint256","internalType":"uint256"},{"name":"fromPos","type":"uint8","internalType":"uint8"},{"name":"playerState","type":"uint32","internalType":"uint32"},{"name":"currentTurnBlack","type":"bool","internalType":"bool"}],"outputs":[{"name":"","type":"bool","internalType":"bool"}],"stateMutability":"pure"},{"type":"function","name":"checkPawnValidMoves","inputs":[{"name":"gameState","type":"uint256","internalType":"uint256"},{"name":"fromPos","type":"uint8","internalType":"uint8"},{"name":"playerState","type":"uint32","internalType":"uint32"},{"name":"opponentState","type":"uint32","internalType":"uint32"},{"name":"currentTurnBlack","type":"bool","internalType":"bool"}],"outputs":[{"name":"","type":"bool","internalType":"bool"}],"stateMutability":"pure"},{"type":"function","name":"checkQueenValidMoves","inputs":[{"name":"gameState","type":"uint256","internalType":"uint256"},{"name":"fromPos","type":"uint8","internalType":"uint8"},{"name":"playerState","type":"uint32","internalType":"uint32"},{"name":"currentTurnBlack","type":"bool","internalType":"bool"}],"outputs":[{"name":"","type":"bool","internalType":"bool"}],"stateMutability":"pure"},{"type":"function","name":"checkRookValidMoves","inputs":[{"name":"gameState","type":"uint256","internalType":"uint256"},{"name":"fromPos","type":"uint8","internalType":"uint8"},{"name":"playerState","type":"uint32","internalType":"uint32"},{"name":"currentTurnBlack","type":"bool","internalType":"bool"}],"outputs":[{"name":"","type":"bool","internalType":"bool"}],"stateMutability":"pure"},{"type":"function","name":"commitMove","inputs":[{"name":"gameState","type":"uint256","internalType":"uint256"},{"name":"fromPos","type":"uint8","internalType":"uint8"},{"name":"toPos","type":"uint8","internalType":"uint8"}],"outputs":[{"name":"newGameState","type":"uint256","internalType":"uint256"}],"stateMutability":"pure"},{"type":"function","name":"getHorizontalMovement","inputs":[{"name":"fromPos","type":"uint8","internalType":"uint8"},{"name":"toPos","type":"uint8","internalType":"uint8"}],"outputs":[{"name":"","type":"uint8","internalType":"uint8"}],"stateMutability":"pure"},{"type":"function","name":"getInBetweenMask","inputs":[{"name":"fromPos","type":"uint8","internalType":"uint8"},{"name":"toPos","type":"uint8","internalType":"uint8"}],"outputs":[{"name":"","type":"uint256","internalType":"uint256"}],"stateMutability":"pure"},{"type":"function","name":"getPositionMask","inputs":[{"name":"pos","type":"uint8","internalType":"uint8"}],"outputs":[{"name":"","type":"uint256","internalType":"uint256"}],"stateMutability":"pure"},{"type":"function","name":"getVerticalMovement","inputs":[{"name":"fromPos","type":"uint8","internalType":"uint8"},{"name":"toPos","type":"uint8","internalType":"uint8"}],"outputs":[{"name":"","type":"uint8","internalType":"uint8"}],"stateMutability":"pure"},{"type":"function","name":"pieceAtPosition","inputs":[{"name":"gameState","type":"uint256","internalType":"uint256"},{"name":"pos","type":"uint8","internalType":"uint8"}],"outputs":[{"name":"","type":"uint8","internalType":"uint8"}],"stateMutability":"pure"},{"type":"function","name":"pieceUnderAttack","inputs":[{"name":"gameState","type":"uint256","internalType":"uint256"},{"name":"pos","type":"uint8","internalType":"uint8"}],"outputs":[{"name":"","type":"bool","internalType":"bool"}],"stateMutability":"pure"},{"type":"function","name":"searchPiece","inputs":[{"name":"gameState","type":"uint256","internalType":"uint256"},{"name":"playerState","type":"uint32","internalType":"uint32"},{"name":"opponentState","type":"uint32","internalType":"uint32"},{"name":"color","type":"uint8","internalType":"uint8"},{"name":"pBitOffset","type":"uint16","internalType":"uint16"},{"name":"bitSize","type":"uint16","internalType":"uint16"}],"outputs":[{"name":"","type":"bool","internalType":"bool"}],"stateMutability":"pure"},{"type":"function","name":"setPosition","inputs":[{"name":"gameState","type":"uint256","internalType":"uint256"},{"name":"pos","type":"uint8","internalType":"uint8"},{"name":"piece","type":"uint8","internalType":"uint8"}],"outputs":[{"name":"","type":"uint256","internalType":"uint256"}],"stateMutability":"pure"},{"type":"function","name":"verifyExecuteBishopMove","inputs":[{"name":"gameState","type":"uint256","internalType":"uint256"},{"name":"fromPos","type":"uint8","internalType":"uint8"},{"name":"toPos","type":"uint8","internalType":"uint8"},{"name":"currentTurnBlack","type":"bool","internalType":"bool"}],"outputs":[{"name":"","type":"uint256","internalType":"uint256"}],"stateMutability":"pure"},{"type":"function","name":"verifyExecuteKingMove","inputs":[{"name":"gameState","type":"uint256","internalType":"uint256"},{"name":"fromPos","type":"uint8","internalType":"uint8"},{"name":"toPos","type":"uint8","internalType":"uint8"},{"name":"currentTurnBlack","type":"bool","internalType":"bool"},{"name":"playerState","type":"uint32","internalType":"uint32"}],"outputs":[{"name":"newGameState","type":"uint256","internalType":"uint256"},{"name":"newPlayerState","type":"uint32","internalType":"uint32"}],"stateMutability":"pure"},{"type":"function","name":"verifyExecuteKnightMove","inputs":[{"name":"gameState","type":"uint256","internalType":"uint256"},{"name":"fromPos","type":"uint8","internalType":"uint8"},{"name":"toPos","type":"uint8","internalType":"uint8"},{"name":"currentTurnBlack","type":"bool","internalType":"bool"}],"outputs":[{"name":"","type":"uint256","internalType":"uint256"}],"stateMutability":"pure"},{"type":"function","name":"verifyExecuteMove","inputs":[{"name":"gameState","type":"uint256","internalType":"uint256"},{"name":"move","type":"uint16","internalType":"uint16"},{"name":"playerState","type":"uint32","internalType":"uint32"},{"name":"opponentState","type":"uint32","internalType":"uint32"},{"name":"currentTurnBlack","type":"bool","internalType":"bool"}],"outputs":[{"name":"newGameState","type":"uint256","internalType":"uint256"},{"name":"newPlayerState","type":"uint32","internalType":"uint32"},{"name":"newOpponentState","type":"uint32","internalType":"uint32"}],"stateMutability":"pure"},{"type":"function","name":"verifyExecutePawnMove","inputs":[{"name":"gameState","type":"uint256","internalType":"uint256"},{"name":"fromPos","type":"uint8","internalType":"uint8"},{"name":"toPos","type":"uint8","internalType":"uint8"},{"name":"moveExtra","type":"uint8","internalType":"uint8"},{"name":"currentTurnBlack","type":"bool","internalType":"bool"},{"name":"playerState","type":"uint32","internalType":"uint32"},{"name":"opponentState","type":"uint32","internalType":"uint32"}],"outputs":[{"name":"newGameState","type":"uint256","internalType":"uint256"},{"name":"newPlayerState","type":"uint32","internalType":"uint32"}],"stateMutability":"pure"},{"type":"function","name":"verifyExecuteQueenMove","inputs":[{"name":"gameState","type":"uint256","internalType":"uint256"},{"name":"fromPos","type":"uint8","internalType":"uint8"},{"name":"toPos","type":"uint8","internalType":"uint8"},{"name":"currentTurnBlack","type":"bool","internalType":"bool"}],"outputs":[{"name":"","type":"uint256","internalType":"uint256"}],"stateMutability":"pure"},{"type":"function","name":"verifyExecuteRookMove","inputs":[{"name":"gameState","type":"uint256","internalType":"uint256"},{"name":"fromPos","type":"uint8","internalType":"uint8"},{"name":"toPos","type":"uint8","internalType":"uint8"},{"name":"currentTurnBlack","type":"bool","internalType":"bool"}],"outputs":[{"name":"","type":"uint256","internalType":"uint256"}],"stateMutability":"pure"},{"type":"function","name":"zeroPosition","inputs":[{"name":"gameState","type":"uint256","internalType":"uint256"},{"name":"pos","type":"uint8","internalType":"uint8"}],"outputs":[{"name":"","type":"uint256","internalType":"uint256"}],"stateMutability":"pure"}],"bytecode":{"object":"0x608060405234801561001057600080fd5b50614223806100206000396000f3fe608060405234801561001057600080fd5b50600436106101a95760003560e01c8063a4a10e0b116100f9578063d35f895311610097578063eb48504211610071578063eb48504214610c3a578063ebbb04aa14610c89578063fd997c7214610cdd578063ff7e513f14610d73576101a9565b8063d35f895314610a52578063dc416a2a14610aa7578063e7f9b59314610bcd576101a9565b8063b5511f9c116100d3578063b5511f9c14610819578063c5f22a5a14610881578063c668ddb4146108dd578063cf1e5b80146109cd576101a9565b8063a4a10e0b146106f2578063a72d6d1d14610744578063ae9be37a146107ac576101a9565b8063385a621c116101665780636ace1036116101405780636ace1036146105485780637dfd04e4146105b05780638ad3b1881461061d578063a14e3e861461068a576101a9565b8063385a621c146104215780633d92e647146104865780634750a939146104f3576101a9565b806303134e26146101ae5780632098b5c0146102005780632b0d8b1f146102455780632ba5c65d146102d25780632e6daa401461037457806330d6d549146103d0575b600080fd5b6101ea600480360360408110156101c457600080fd5b81019080803560ff169060200190929190803560ff169060200190929190505050610df0565b6040518082815260200191505060405180910390f35b61022f6004803603602081101561021657600080fd5b81019080803560ff169060200190929190505050610ff9565b6040518082815260200191505060405180910390f35b6102ba600480360360c081101561025b57600080fd5b8101908080359060200190929190803563ffffffff169060200190929190803563ffffffff169060200190929190803560ff169060200190929190803561ffff169060200190929190803561ffff16906020019092919050505061101f565b60405180821515815260200191505060405180910390f35b610351600480360360e08110156102e857600080fd5b8101908080359060200190929190803560ff169060200190929190803560ff169060200190929190803560ff169060200190929190803515159060200190929190803563ffffffff169060200190929190803563ffffffff169060200190929190505050611279565b604051808381526020018263ffffffff1681526020019250505060405180910390f35b6103ba6004803603606081101561038a57600080fd5b8101908080359060200190929190803560ff169060200190929190803560ff169060200190929190505050611651565b6040518082815260200191505060405180910390f35b610409600480360360408110156103e657600080fd5b8101908080359060200190929190803560ff16906020019092919050505061167a565b60405180821515815260200191505060405180910390f35b61046d6004803603606081101561043757600080fd5b8101908080359060200190929190803563ffffffff169060200190929190803563ffffffff169060200190929190505050611fa7565b604051808260ff16815260200191505060405180910390f35b6104db6004803603608081101561049c57600080fd5b8101908080359060200190929190803560ff169060200190929190803563ffffffff16906020019092919080351515906020019092919050505061203c565b60405180821515815260200191505060405180910390f35b61052f6004803603604081101561050957600080fd5b81019080803560ff169060200190929190803560ff169060200190929190505050612343565b604051808260ff16815260200191505060405180910390f35b61059a6004803603608081101561055e57600080fd5b8101908080359060200190929190803560ff169060200190929190803560ff16906020019092919080351515906020019092919050505061238a565b6040518082815260200191505060405180910390f35b610605600480360360808110156105c657600080fd5b8101908080359060200190929190803560ff169060200190929190803563ffffffff169060200190929190803515159060200190929190505050612476565b60405180821515815260200191505060405180910390f35b6106726004803603608081101561063357600080fd5b8101908080359060200190929190803560ff169060200190929190803563ffffffff16906020019092919080351515906020019092919050505061270b565b60405180821515815260200191505060405180910390f35b6106dc600480360360808110156106a057600080fd5b8101908080359060200190929190803560ff169060200190929190803560ff169060200190929190803515159060200190929190505050612c54565b6040518082815260200191505060405180910390f35b61072b6004803603604081101561070857600080fd5b8101908080359060200190929190803560ff169060200190929190505050612d37565b604051808260ff16815260200191505060405180910390f35b6107966004803603608081101561075a57600080fd5b8101908080359060200190929190803560ff169060200190929190803560ff169060200190929190803515159060200190929190505050612d4e565b6040518082815260200191505060405180910390f35b610801600480360360808110156107c257600080fd5b8101908080359060200190929190803560ff169060200190929190803563ffffffff169060200190929190803515159060200190929190505050612e42565b60405180821515815260200191505060405180910390f35b61086b6004803603608081101561082f57600080fd5b8101908080359060200190929190803560ff169060200190929190803560ff169060200190929190803515159060200190929190505050613120565b6040518082815260200191505060405180910390f35b6108c76004803603606081101561089757600080fd5b8101908080359060200190929190803560ff169060200190929190803560ff169060200190929190505050613223565b6040518082815260200191505060405180910390f35b610993600480360360208110156108f357600080fd5b810190808035906020019064010000000081111561091057600080fd5b82018360208201111561092257600080fd5b8035906020019184602083028401116401000000008311171561094457600080fd5b919080806020026020016040519081016040528093929190818152602001838360200280828437600081840152601f19601f82011690508083019250505050505050919291929050505061325d565b604051808560ff1681526020018481526020018363ffffffff1681526020018263ffffffff16815260200194505050505060405180910390f35b610a2f600480360360a08110156109e357600080fd5b8101908080359060200190929190803560ff169060200190929190803560ff169060200190929190803515159060200190929190803563ffffffff1690602001909291905050506132a7565b604051808381526020018263ffffffff1681526020019250505060405180910390f35b610a8e60048036036040811015610a6857600080fd5b81019080803560ff169060200190929190803560ff169060200190929190505050613521565b604051808260ff16815260200191505060405180910390f35b610b93600480360360a0811015610abd57600080fd5b8101908080359060200190929190803563ffffffff169060200190929190803563ffffffff16906020019092919080351515906020019092919080359060200190640100000000811115610b1057600080fd5b820183602082011115610b2257600080fd5b80359060200191846020830284011164010000000083111715610b4457600080fd5b919080806020026020016040519081016040528093929190818152602001838360200280828437600081840152601f19601f820116905080830192505050505050509192919290505050613558565b604051808560ff1681526020018481526020018363ffffffff1681526020018263ffffffff16815260200194505050505060405180910390f35b610c2260048036036080811015610be357600080fd5b8101908080359060200190929190803560ff169060200190929190803563ffffffff169060200190929190803515159060200190929190505050613895565b60405180821515815260200191505060405180910390f35b610c7360048036036040811015610c5057600080fd5b8101908080359060200190929190803560ff169060200190929190505050613ba1565b6040518082815260200191505060405180910390f35b610cc560048036036040811015610c9f57600080fd5b8101908080359060200190929190803563ffffffff169060200190929190505050613bb9565b60405180821515815260200191505060405180910390f35b610d43600480360360a0811015610cf357600080fd5b8101908080359060200190929190803561ffff169060200190929190803563ffffffff169060200190929190803563ffffffff169060200190929190803515159060200190929190505050613bfc565b604051808481526020018363ffffffff1681526020018263ffffffff168152602001935050505060405180910390f35b610dd8600480360360a0811015610d8957600080fd5b8101908080359060200190929190803560ff169060200190929190803563ffffffff169060200190929190803563ffffffff169060200190929190803515159060200190929190505050613fc3565b60405180821515815260200191505060405180910390f35b600080610dfd8484613521565b90506000610e0b8585612343565b90508060ff168260ff161480610e24575060008260ff16145b80610e32575060008160ff16145b610ea4576040517f08c379a00000000000000000000000000000000000000000000000000000000081526004018080602001828103825260088152602001807f696e76206d6f766500000000000000000000000000000000000000000000000081525060200191505060405180910390fd5b6000610eaf86610ff9565b90506000610ebc86610ff9565b905060006007881660078816039050600060038960ff16901c60038960ff16901c0390506000808360000b138015610ef7575060008260000b135b80610f14575060008360000b128015610f13575060008260000b125b5b15610f225760249050610fac565b60008360000b148015610f39575060008260000b14155b15610f475760209050610fab565b60008360000b138015610f5d575060008260000b125b80610f7a575060008360000b128015610f79575060008260000b135b5b15610f8857601c9050610faa565b60008360000b14158015610f9f575060008260000b145b15610fa957600490505b5b5b5b60005b858514610fe85784861015610fcc578160ff1686901b9550610fd6565b8160ff1686901c95505b858514610fe35785811790505b610faf565b809850505050505050505092915050565b6000600460078316026020600760038560ff16901c16020160ff16600f901b9050919050565b6000600460ff168261ffff1611156110eb57600060028361ffff168161104157fe5b04905060008161ffff167fffffffffffffffffffffffffffffffffffffffffffffffffffffffffffffffff901b19905060008183870161ffff168b901c169050600081146110ab576110998a8a8a8a878b018861101f565b156110aa576001935050505061126f565b5b6000828761ffff168c901c169050600081146110e2576110cf8b8b8b8b8b8961101f565b156110e157600194505050505061126f565b5b5050505061126a565b6000600f8461ffff1689901c16905060008160ff1611801561111557508460ff166008821660ff16145b15611268576000600460ff168561ffff168161112d57fe5b0490506000808760ff16141590506000600784169050600660ff168160ff1614801561116157506111608b848c85613895565b5b1561117357600194505050505061126f565b600160ff168160ff1614801561119257506111918b848c8c86613fc3565b5b156111a457600194505050505061126f565b600360ff168160ff161480156111c257506111c18b848c8561203c565b5b156111d457600194505050505061126f565b600460ff168160ff161480156111f257506111f18b848c85612476565b5b1561120457600194505050505061126f565b600260ff168160ff1614801561122257506112218b848c85612e42565b5b1561123457600194505050505061126f565b600560ff168160ff1614801561125257506112518b848c8561270b565b5b1561126457600194505050505061126f565b5050505b505b600090505b9695505050505050565b6000808390508760ff168760ff16101515851515146112be577fffffffffffffffffffffffffffffffffffffffffffffffffffffffffffffffff600091509150611645565b60006112d08960ff168960ff166141ba565b6112e08a60ff168a60ff166141d3565b03905060006112ef8b8a612d37565b905060088260ff161480611306575060108260ff16145b156114305760008160ff1614611344577fffffffffffffffffffffffffffffffffffffffffffffffffffffffffffffffff6000935093505050611645565b60108260ff16141561142b578680156113685750600660038b60ff16901c60ff1614155b806113885750861580156113875750600160038b60ff16901c60ff1614155b5b156113bb577fffffffffffffffffffffffffffffffffffffffffffffffffffffffffffffffff6000935093505050611645565b60008a60ff168a60ff16116113d35760088a016113d8565b60088b015b905060006113e68d83612d37565b60ff161461141d577fffffffffffffffffffffffffffffffffffffffffffffffffffffffffffffffff600094509450505050611645565b8060ff1660ff198516179350505b611525565b60078260ff161480611445575060098260ff16145b156114f65760016114568b8b612343565b60ff161461148c577fffffffffffffffffffffffffffffffffffffffffffffffffffffffffffffffff6000935093505050611645565b8860ff1660ff861660ff16146114f15760008160ff1614806114bd5750600860ff166008821660ff16141515871515145b156114f0577fffffffffffffffffffffffffffffffffffffffffffffffffffffffffffffffff6000935093505050611645565b5b611524565b7fffffffffffffffffffffffffffffffffffffffffffffffffffffffffffffffff6000935093505050611645565b5b6115308b8b8b613223565b93508680156115495750600060038a60ff16901c60ff16145b806115685750861580156115675750600760038a60ff16901c60ff16145b5b1561164257600260ff168860ff1614806115885750600360ff168860ff16145b806115995750600460ff168860ff16145b806115aa5750600560ff168860ff16145b61161c576040517f08c379a00000000000000000000000000000000000000000000000000000000081526004018080602001828103825260088152602001807f696e762070726f6d00000000000000000000000000000000000000000000000081525060200191505060405180910390fd5b61163f611629858b613ba1565b8a89611635578a61163a565b60088b175b611651565b93505b50505b97509795505050505050565b6000806004840290508060ff168360ff16901b8160ff16600f901b198616179150509392505050565b600080600f6004840260ff1685901c1690506000806008831660ff16116116a25760086116a5565b60005b60011790506000806008841660ff16116116c05760086116c3565b60005b60021790506000806008851660ff16116116de5760086116e1565b60005b60031790506000806008861660ff16116116fc5760086116ff565b60005b60041790506000806008871660ff161161171a57600861171d565b60005b60051790506000806008881660ff161161173857600861173b565b60005b6006179050600096506000806001905060088b0191505b60408260ff1610156117d657600f6004830260ff168d901c16985060008960ff1611156117c7578460ff168960ff16148061179257508360ff168960ff16145b806117ab57508080156117aa57508260ff168960ff16145b5b156117c25760019950505050505050505050611fa1565b6117d6565b60088201915060009050611752565b6001905060088b0391505b8a60ff168260ff16101561186757600f6004830260ff168d901c16985060008960ff161115611858578460ff168960ff16148061182357508360ff168960ff16145b8061183c575080801561183b57508260ff168960ff16145b5b156118535760019950505050505050505050611fa1565b611867565b600882039150600090506117e1565b6001905060018b0191505b60038260ff16901c60ff1660038c60ff16901c60ff16141561190657600f6004830260ff168d901c16985060008960ff1611156118f7578460ff168960ff1614806118c257508360ff168960ff16145b806118db57508080156118da57508260ff168960ff16145b5b156118f25760019950505050505050505050611fa1565b611906565b60018201915060009050611872565b6001905060018b0391505b60038260ff16901c60ff1660038c60ff16901c60ff1614156119a557600f6004830260ff168d901c16985060008960ff161115611996578460ff168960ff16148061196157508360ff168960ff16145b8061197a575080801561197957508260ff168960ff16145b5b156119915760019950505050505050505050611fa1565b6119a5565b60018203915060009050611911565b6001905060098b0191505b60408260ff161080156119ce575060078b1660ff166007831660ff16115b15611a7057600f6004830260ff168d901c16985060008960ff161115611a61578660ff168960ff161480611a0757508360ff168960ff16145b80611a455750808015611a4457508260ff168960ff161480611a4357508760ff168960ff16148015611a425750600860ff166008891660ff16145b5b5b5b15611a5c5760019950505050505050505050611fa1565b611a70565b600982019150600090506119b0565b6001905060078b0191505b60408260ff16108015611a99575060078b1660ff166007831660ff16105b15611b3b57600f6004830260ff168d901c16985060008960ff161115611b2c578660ff168960ff161480611ad257508360ff168960ff16145b80611b105750808015611b0f57508260ff168960ff161480611b0e57508760ff168960ff16148015611b0d5750600860ff166008891660ff16145b5b5b5b15611b275760019950505050505050505050611fa1565b611b3b565b60078201915060009050611a7b565b6001905060078b0391505b60408260ff16108015611b64575060078b1660ff166007831660ff16115b15611c0357600f6004830260ff168d901c16985060008960ff161115611bf4578660ff168960ff161480611b9d57508360ff168960ff16145b80611bd85750808015611bd757508260ff168960ff161480611bd657508760ff168960ff16148015611bd5575060006008891660ff16145b5b5b5b15611bef5760019950505050505050505050611fa1565b611c03565b60078203915060009050611b46565b6001905060098b0391505b60408260ff16108015611c2c575060078b1660ff166007831660ff16105b15611ccb57600f6004830260ff168d901c16985060008960ff161115611cbc578660ff168960ff161480611c6557508360ff168960ff16145b80611ca05750808015611c9f57508260ff168960ff161480611c9e57508760ff168960ff16148015611c9d575060006008891660ff16145b5b5b5b15611cb75760019950505050505050505050611fa1565b611ccb565b60098203915060009050611c0e565b60118b01915060408260ff16108015611cef575060078b1660ff166007831660ff16115b8015611d0c57508560ff16600f6004840260ff168e901c1660ff16145b15611d235760019950505050505050505050611fa1565b600f8b01915060408260ff16108015611d47575060078b1660ff166007831660ff16105b8015611d6457508560ff16600f6004840260ff168e901c1660ff16145b15611d7b5760019950505050505050505050611fa1565b600a8b01915060408260ff16108015611d9f575060078b1660ff166007831660ff16115b8015611dbc57508560ff16600f6004840260ff168e901c1660ff16145b15611dd35760019950505050505050505050611fa1565b60068b01915060408260ff16108015611df7575060078b1660ff166007831660ff16105b8015611e1457508560ff16600f6004840260ff168e901c1660ff16145b15611e2b5760019950505050505050505050611fa1565b60118b0391508a60ff168260ff16108015611e51575060078b1660ff166007831660ff16105b8015611e6e57508560ff16600f6004840260ff168e901c1660ff16145b15611e855760019950505050505050505050611fa1565b600a8b0391508a60ff168260ff16108015611eab575060078b1660ff166007831660ff16105b8015611ec857508560ff16600f6004840260ff168e901c1660ff16145b15611edf5760019950505050505050505050611fa1565b600f8b0391508a60ff168260ff16108015611f05575060078b1660ff166007831660ff16115b8015611f2257508560ff16600f6004840260ff168e901c1660ff16145b15611f395760019950505050505050505050611fa1565b60068b0391508a60ff168260ff16108015611f5f575060078b1660ff166007831660ff16115b8015611f7c57508560ff16600f6004840260ff168e901c1660ff16145b15611f935760019950505050505050505050611fa1565b600099505050505050505050505b92915050565b600080600f600260ff16600861ffff168663ffffffff16901c60ff16901b60ff1686901c169050600660ff16600819821660ff1614611fe257fe5b6000611ff886868685600816600061010061101f565b90506120048686613bb9565b156120215780612015576002612018565b60005b92505050612035565b8061202d576001612030565b60005b925050505b9392505050565b600080600080600861ffff168663ffffffff16901c905060068701915061206588888488612d4e565b92507fffffffffffffffffffffffffffffffffffffffffffffffffffffffffffffffff831415801561209e575061209c838261167a565b155b156120af576001935050505061233b565b6006870391506120c188888488612d4e565b92507fffffffffffffffffffffffffffffffffffffffffffffffffffffffffffffffff83141580156120fa57506120f8838261167a565b155b1561210b576001935050505061233b565b600a8701915061211d88888488612d4e565b92507fffffffffffffffffffffffffffffffffffffffffffffffffffffffffffffffff83141580156121565750612154838261167a565b155b15612167576001935050505061233b565b600a8703915061217988888488612d4e565b92507fffffffffffffffffffffffffffffffffffffffffffffffffffffffffffffffff83141580156121b257506121b0838261167a565b155b156121c3576001935050505061233b565b6011870391506121d588888488612d4e565b92507fffffffffffffffffffffffffffffffffffffffffffffffffffffffffffffffff831415801561220e575061220c838261167a565b155b1561221f576001935050505061233b565b60118701915061223188888488612d4e565b92507fffffffffffffffffffffffffffffffffffffffffffffffffffffffffffffffff831415801561226a5750612268838261167a565b155b1561227b576001935050505061233b565b600f8701915061228d88888488612d4e565b92507fffffffffffffffffffffffffffffffffffffffffffffffffffffffffffffffff83141580156122c657506122c4838261167a565b155b156122d7576001935050505061233b565b600f870391506122e988888488612d4e565b92507fffffffffffffffffffffffffffffffffffffffffffffffffffffffffffffffff83141580156123225750612320838261167a565b155b15612333576001935050505061233b565b600093505050505b949350505050565b600061236360038460ff16901c60ff1660038460ff16901c60ff166141ba565b61238160038560ff16901c60ff1660038560ff16901c60ff166141d3565b03905092915050565b6000806123978685612d37565b905060008160ff1611156123e757821515600860ff166008831660ff1614151514156123e6577fffffffffffffffffffffffffffffffffffffffffffffffffffffffffffffffff91505061246e565b5b60006123f38686613521565b905060006124018787612343565b905060008160ff1611151560008360ff16111515148061242d575060006124288888610df0565b891614155b1561245d577fffffffffffffffffffffffffffffffffffffffffffffffffffffffffffffffff935050505061246e565b612468888888613223565b93505050505b949350505050565b6000806000806000600861ffff168763ffffffff16901c90506001880391505b6007881660ff166007831660ff16101561252f576124b68989848961238a565b93507fffffffffffffffffffffffffffffffffffffffffffffffffffffffffffffffff84141580156124ef57506124ed848261167a565b155b15612501576001945050505050612703565b6000600f600260ff168460ff16901b60ff168b901c16146125215761252f565b818060019003925050612496565b6001880191505b6007881660ff166007831660ff1611156125ce576125568989848961238a565b93507fffffffffffffffffffffffffffffffffffffffffffffffffffffffffffffffff841415801561258f575061258d848261167a565b155b156125a1576001945050505050612703565b6000600f600260ff168460ff16901b60ff168b901c16146125c1576125ce565b8180600101925050612536565b6008880191505b60408260ff161015612663576125ed8989848961238a565b93507fffffffffffffffffffffffffffffffffffffffffffffffffffffffffffffffff84141580156126265750612624848261167a565b155b15612638576001945050505050612703565b6000600f600260ff168460ff16901b60ff168b901c161461265857612663565b6008820191506125d5565b6008880391505b8760ff168260ff1610156126fa576126848989848961238a565b93507fffffffffffffffffffffffffffffffffffffffffffffffffffffffffffffffff84141580156126bd57506126bb848261167a565b155b156126cf576001945050505050612703565b6000600f600260ff168460ff16901b60ff168b901c16146126ef576126fa565b60088203915061266a565b60009450505050505b949350505050565b6000806000806000600861ffff168763ffffffff16901c90506001880391505b6007881660ff166007831660ff1610156127c45761274b89898489613120565b93507fffffffffffffffffffffffffffffffffffffffffffffffffffffffffffffffff84141580156127845750612782848261167a565b155b15612796576001945050505050612c4c565b6000600f600260ff168460ff16901b60ff168b901c16146127b6576127c4565b81806001900392505061272b565b6001880191505b6007881660ff166007831660ff161115612863576127eb89898489613120565b93507fffffffffffffffffffffffffffffffffffffffffffffffffffffffffffffffff84141580156128245750612822848261167a565b155b15612836576001945050505050612c4c565b6000600f600260ff168460ff16901b60ff168b901c161461285657612863565b81806001019250506127cb565b6008880191505b60408260ff1610156128f85761288289898489613120565b93507fffffffffffffffffffffffffffffffffffffffffffffffffffffffffffffffff84141580156128bb57506128b9848261167a565b155b156128cd576001945050505050612c4c565b6000600f600260ff168460ff16901b60ff168b901c16146128ed576128f8565b60088201915061286a565b6008880391505b8760ff168260ff16101561298f5761291989898489613120565b93507fffffffffffffffffffffffffffffffffffffffffffffffffffffffffffffffff84141580156129525750612950848261167a565b155b15612964576001945050505050612c4c565b6000600f600260ff168460ff16901b60ff168b901c16146129845761298f565b6008820391506128ff565b6009880191505b60408260ff161080156129b457506007881660ff166007831660ff16115b15612a3b576129c589898489613120565b93507fffffffffffffffffffffffffffffffffffffffffffffffffffffffffffffffff84141580156129fe57506129fc848261167a565b155b15612a10576001945050505050612c4c565b6000600f600260ff168460ff16901b60ff168b901c1614612a3057612a3b565b600982019150612996565b6007880191505b60408260ff16108015612a6057506007881660ff166007831660ff16105b15612ae757612a7189898489613120565b93507fffffffffffffffffffffffffffffffffffffffffffffffffffffffffffffffff8414158015612aaa5750612aa8848261167a565b155b15612abc576001945050505050612c4c565b6000600f600260ff168460ff16901b60ff168b901c1614612adc57612ae7565b600782019150612a42565b6007880391505b8760ff168260ff16108015612b0e57506007881660ff166007831660ff16115b15612b9557612b1f89898489613120565b93507fffffffffffffffffffffffffffffffffffffffffffffffffffffffffffffffff8414158015612b585750612b56848261167a565b155b15612b6a576001945050505050612c4c565b6000600f600260ff168460ff16901b60ff168b901c1614612b8a57612b95565b600782039150612aee565b6009880391505b8760ff168260ff16108015612bbc57506007881660ff166007831660ff16105b15612c4357612bcd89898489613120565b93507fffffffffffffffffffffffffffffffffffffffffffffffffffffffffffffffff8414158015612c065750612c04848261167a565b155b15612c18576001945050505050612c4c565b6000600f600260ff168460ff16901b60ff168b901c1614612c3857612c43565b600982039150612b9c565b60009450505050505b949350505050565b600080612c618685612d37565b905060008160ff161115612cb157821515600860ff166008831660ff161415151415612cb0577fffffffffffffffffffffffffffffffffffffffffffffffffffffffffffffffff915050612d2f565b5b6000612cbd8686613521565b90506000612ccb8787612343565b90508060ff168260ff16141580612cee57506000612ce98888610df0565b891614155b15612d1e577fffffffffffffffffffffffffffffffffffffffffffffffffffffffffffffffff9350505050612d2f565b612d29888888613223565b93505050505b949350505050565b6000600f6004830260ff1684901c16905092915050565b600080612d5b8685612d37565b905060008160ff161115612dab57821515600860ff166008831660ff161415151415612daa577fffffffffffffffffffffffffffffffffffffffffffffffffffffffffffffffff915050612e3a565b5b6000612db78686613521565b90506000612dc58787612343565b905060028260ff16148015612ddd575060018160ff16145b80612dfa575060018260ff16148015612df9575060028160ff16145b5b612e29577fffffffffffffffffffffffffffffffffffffffffffffffffffffffffffffffff9350505050612e3a565b612e34888888613223565b93505050505b949350505050565b6000806000806000600861ffff168763ffffffff16901c90506009880191505b60408260ff16108015612e8057506007881660ff166007831660ff16115b15612f0757612e9189898489612c54565b93507fffffffffffffffffffffffffffffffffffffffffffffffffffffffffffffffff8414158015612eca5750612ec8848261167a565b155b15612edc576001945050505050613118565b6000600f600260ff168460ff16901b60ff168b901c1614612efc57612f07565b600982019150612e62565b6007880191505b60408260ff16108015612f2c57506007881660ff166007831660ff16105b15612fb357612f3d89898489612c54565b93507fffffffffffffffffffffffffffffffffffffffffffffffffffffffffffffffff8414158015612f765750612f74848261167a565b155b15612f88576001945050505050613118565b6000600f600260ff168460ff16901b60ff168b901c1614612fa857612fb3565b600782019150612f0e565b6007880391505b8760ff168260ff16108015612fda57506007881660ff166007831660ff16115b1561306157612feb89898489612c54565b93507fffffffffffffffffffffffffffffffffffffffffffffffffffffffffffffffff84141580156130245750613022848261167a565b155b15613036576001945050505050613118565b6000600f600260ff168460ff16901b60ff168b901c161461305657613061565b600782039150612fba565b6009880391505b8760ff168260ff1610801561308857506007881660ff166007831660ff16105b1561310f5761309989898489612c54565b93507fffffffffffffffffffffffffffffffffffffffffffffffffffffffffffffffff84141580156130d257506130d0848261167a565b155b156130e4576001945050505050613118565b6000600f600260ff168460ff16901b60ff168b901c16146131045761310f565b600982039150613068565b60009450505050505b949350505050565b60008061312d8685612d37565b905060008160ff16111561317d57821515600860ff166008831660ff16141515141561317c577fffffffffffffffffffffffffffffffffffffffffffffffffffffffffffffffff91505061321b565b5b60006131898686613521565b905060006131978787612343565b90508060ff168260ff16141580156131b3575060008260ff1614155b80156131c3575060008160ff1614155b806131da575060006131d58888610df0565b891614155b1561320a577fffffffffffffffffffffffffffffffffffffffffffffffffffffffffffffffff935050505061321b565b613215888888613223565b93505050505b949350505050565b6000806004840290506000600f8260ff1687901c1690508160ff16600f901b1986169250613252838583611651565b925050509392505050565b6000806000806132987fcbaedabc99999999000000000000000000000000000000001111111143265234620704ff63383f3cff600089613558565b93509350935093509193509193565b600080600861ffff168560ff1663ffffffff16901b63ffff00ff638080000085171617905060006132d88887612d37565b905060008160ff16111561332857841515600860ff166008831660ff161415151415613327577fffffffffffffffffffffffffffffffffffffffffffffffffffffffffffffffff925050613517565b5b60408660ff1610158061333f575060408760ff1610155b1561336d577fffffffffffffffffffffffffffffffffffffffffffffffffffffffffffffffff925050613517565b60006133798888613521565b905060006133878989612343565b905060018260ff16111580156133a1575060018160ff1611155b156133bb576133b18a8a8a613223565b9450505050613517565b60028260ff161480156133d1575060008160ff16145b156134ec576133e08a8a61167a565b6134eb576000601861ffff168763ffffffff16901c90508860ff166002820160ff1614156134695760008b613415838d610df0565b1614156134645761342a8b8b60018d03613223565b95506134398660018c0361167a565b6134635761345861344e8760018d038c613223565b8260018d03613223565b955050505050613517565b5b6134e9565b601061ffff168763ffffffff16901c90508860ff166001820360ff1614156134e85760008b613498838d610df0565b1614156134e7576134ad8b8b60018d01613223565b95506134bc8660018c0161167a565b6134e6576134db6134d18760018d018c613223565b8260018d01613223565b955050505050613517565b5b5b5b505b5b7fffffffffffffffffffffffffffffffffffffffffffffffffffffffffffffffff6000945094505050505b9550959350505050565b60006135396007841660ff166007841660ff166141ba565b61354f6007851660ff166007851660ff166141d3565b03905092915050565b60008060008088925087915086905060009350600086905060008651116135e7576040517f08c379a00000000000000000000000000000000000000000000000000000000081526004018080602001828103825260098152602001807f696e76206d6f766573000000000000000000000000000000000000000000000081525060200191505060405180910390fd5b61200061ffff16866001885103815181106135fe57fe5b602002602001015161ffff16141561372757600286511015613688576040517f08c379a00000000000000000000000000000000000000000000000000000000081526004018080602001828103825260088152602001807f696e76206472617700000000000000000000000000000000000000000000000081525060200191505060405180910390fd5b61100061ffff168660028851038151811061369f57fe5b602002602001015161ffff161461371e576040517f08c379a00000000000000000000000000000000000000000000000000000000081526004018080602001828103825260088152602001807f696e76206472617700000000000000000000000000000000000000000000000081525060200191505060405180910390fd5b60019450613888565b61300061ffff168660018851038151811061373e57fe5b602002602001015161ffff16141561377b578015156001600288518161376057fe5b061415151415613771576002613774565b60035b9450613887565b60005b8651811015613841576137a78588838151811061379757fe5b6020026020010151868686613bfc565b8096508195508297505050506137bd8584613bb9565b15613830576040517f08c379a00000000000000000000000000000000000000000000000000000000081526004018080602001828103825260098152602001807f696e7620636865636b000000000000000000000000000000000000000000000081525060200191505060405180910390fd5b81159150808060010191505061377e565b50600061384f858585611fa7565b905060028160ff161415613873578161386957600361386c565b60025b9550613885565b60018160ff16141561388457600195505b5b505b5b5095509550955095915050565b60008060006009860390506138ad87878387896132a7565b50809250507fffffffffffffffffffffffffffffffffffffffffffffffffffffffffffffffff82141580156138e957506138e7828261167a565b155b156138f957600192505050613b99565b60088603905061390c87878387896132a7565b50809250507fffffffffffffffffffffffffffffffffffffffffffffffffffffffffffffffff82141580156139485750613946828261167a565b155b1561395857600192505050613b99565b60078603905061396b87878387896132a7565b50809250507fffffffffffffffffffffffffffffffffffffffffffffffffffffffffffffffff82141580156139a757506139a5828261167a565b155b156139b757600192505050613b99565b6001860390506139ca87878387896132a7565b50809250507fffffffffffffffffffffffffffffffffffffffffffffffffffffffffffffffff8214158015613a065750613a04828261167a565b155b15613a1657600192505050613b99565b600186019050613a2987878387896132a7565b50809250507fffffffffffffffffffffffffffffffffffffffffffffffffffffffffffffffff8214158015613a655750613a63828261167a565b155b15613a7557600192505050613b99565b600786019050613a8887878387896132a7565b50809250507fffffffffffffffffffffffffffffffffffffffffffffffffffffffffffffffff8214158015613ac45750613ac2828261167a565b155b15613ad457600192505050613b99565b600886019050613ae787878387896132a7565b50809250507fffffffffffffffffffffffffffffffffffffffffffffffffffffffffffffffff8214158015613b235750613b21828261167a565b155b15613b3357600192505050613b99565b600986019050613b4687878387896132a7565b50809250507fffffffffffffffffffffffffffffffffffffffffffffffffffffffffffffffff8214158015613b825750613b80828261167a565b155b15613b9257600192505050613b99565b6000925050505b949350505050565b60006004820260ff16600f901b198316905092915050565b600080600861ffff168363ffffffff16901c90506007613bd98583612d37565b1660ff16600660ff1614613be957fe5b613bf3848261167a565b91505092915050565b600080600080603f60068961ffff16901c1690506000603f891690508060ff168260ff161415613c94576040517f08c379a000000000000000000000000000000000000000000000000000000000815260040180806020018281038252600e8152602001807f696e76206d6f7665207374616c6500000000000000000000000000000000000081525060200191505060405180910390fd5b6000613ca08b84612d37565b905086151560006008831660ff1611151514613d24576040517f08c379a000000000000000000000000000000000000000000000000000000000815260040180806020018281038252600e8152602001807f696e76206d6f766520636f6c6f7200000000000000000000000000000000000081525060200191505060405180910390fd5b6000600782169050899550889450600160ff168160ff161415613d6557613d588c8585600c8f61ffff16901c8c8f8f611279565b8097508198505050613ed9565b600360ff168160ff161415613d8757613d808c85858b612d4e565b9650613ed8565b600260ff168160ff161415613da957613da28c85858b612c54565b9650613ed7565b600460ff168160ff161415613e1b57613dc48c85858b61238a565b9650601061ffff168a63ffffffff16901c60ff168460ff161415613def57628000008a179550613e16565b601861ffff168a63ffffffff16901c60ff168460ff161415613e155763800000008a1795505b5b613ed6565b600560ff168160ff161415613e3d57613e368c85858b613120565b9650613ed5565b600660ff168160ff161415613e6657613e598c85858b8e6132a7565b8097508198505050613ed4565b6040517f08c379a000000000000000000000000000000000000000000000000000000000815260040180806020018281038252600d8152602001807f696e76206d6f766520747970650000000000000000000000000000000000000081525060200191505060405180910390fd5b5b5b5b5b5b7fffffffffffffffffffffffffffffffffffffffffffffffffffffffffffffffff871415613f6f576040517f08c379a00000000000000000000000000000000000000000000000000000000081526004018080602001828103825260088152602001807f696e76206d6f766500000000000000000000000000000000000000000000000081525060200191505060405180910390fd5b60ff891663ffffffff168360ff161415613fae578715613f9d57613f968760088501613ba1565b9650613fad565b613faa8760088503613ba1565b96505b5b60ff8917945050505050955095509592505050565b600080600080600590506000600861ffff168863ffffffff16901c905085613fee5760078901613ff3565b600789035b92506140048a8a85858a8d8d611279565b50809450507fffffffffffffffffffffffffffffffffffffffffffffffffffffffffffffffff8414158015614040575061403e848261167a565b155b156140525760019450505050506141b1565b856140605760088901614065565b600889035b92506140768a8a85858a8d8d611279565b50809450507fffffffffffffffffffffffffffffffffffffffffffffffffffffffffffffffff84141580156140b257506140b0848261167a565b155b156140c45760019450505050506141b1565b856140d257600989016140d7565b600989035b92506140e88a8a85858a8d8d611279565b50809450507fffffffffffffffffffffffffffffffffffffffffffffffffffffffffffffffff84141580156141245750614122848261167a565b155b156141365760019450505050506141b1565b856141445760108901614149565b601089035b925061415a8a8a85858a8d8d611279565b50809450507fffffffffffffffffffffffffffffffffffffffffffffffffffffffffffffffff84141580156141965750614194848261167a565b155b156141a85760019450505050506141b1565b60009450505050505b95945050505050565b60008183106141c957816141cb565b825b905092915050565b6000818310156141e357816141e5565b825b90509291505056fea26469706673582212203affc1e6667dea0db1b02684983b463ca3ac82f33e4315c6206a507c46c4510964736f6c63430007060033","linkReferences":{}},"methodIdentifiers":{"checkBishopValidMoves(uint256,uint8,uint32,bool)":"ae9be37a","checkEndgame(uint256,uint32,uint32)":"385a621c","checkForCheck(uint256,uint32)":"ebbb04aa","checkGame(uint256,uint32,uint32,bool,uint16[])":"dc416a2a","checkGameFromStart(uint16[])":"c668ddb4","checkKingValidMoves(uint256,uint8,uint32,bool)":"e7f9b593","checkKnightValidMoves(uint256,uint8,uint32,bool)":"3d92e647","checkPawnValidMoves(uint256,uint8,uint32,uint32,bool)":"ff7e513f","checkQueenValidMoves(uint256,uint8,uint32,bool)":"8ad3b188","checkRookValidMoves(uint256,uint8,uint32,bool)":"7dfd04e4","commitMove(uint256,uint8,uint8)":"c5f22a5a","getHorizontalMovement(uint8,uint8)":"d35f8953","getInBetweenMask(uint8,uint8)":"03134e26","getPositionMask(uint8)":"2098b5c0","getVerticalMovement(uint8,uint8)":"4750a939","pieceAtPosition(uint256,uint8)":"a4a10e0b","pieceUnderAttack(uint256,uint8)":"30d6d549","searchPiece(uint256,uint32,uint32,uint8,uint16,uint16)":"2b0d8b1f","setPosition(uint256,uint8,uint8)":"2e6daa40","verifyExecuteBishopMove(uint256,uint8,uint8,bool)":"a14e3e86","verifyExecuteKingMove(uint256,uint8,uint8,bool,uint32)":"cf1e5b80","verifyExecuteKnightMove(uint256,uint8,uint8,bool)":"a72d6d1d","verifyExecuteMove(uint256,uint16,uint32,uint32,bool)":"fd997c72","verifyExecutePawnMove(uint256,uint8,uint8,uint8,bool,uint32,uint32)":"2ba5c65d","verifyExecuteQueenMove(uint256,uint8,uint8,bool)":"b5511f9c","verifyExecuteRookMove(uint256,uint8,uint8,bool)":"6ace1036","zeroPosition(uint256,uint8)":"eb485042"},"id":0}