{"abi":[{"type":"constructor","inputs":[{"name":"_arbitrator","type":"address","internalType":"address"},{"name":"initialOwner","type":"address","internalType":"address"}],"stateMutability":"nonpayable"},{"type":"function","name":"TIMEOUT","inputs":[],"outputs":[{"name":"","type":"uint256","internalType":"uint256"}],"stateMutability":"view"},{"type":"function","name":"arbitrator","inputs":[],"outputs":[{"name":"","type":"address","internalType":"address"}],"stateMutability":"view"},{"type":"function","name":"claimTimeout","inputs":[{"name":"gameId","type":"uint256","internalType":"uint256"}],"outputs":[],"stateMutability":"nonpayable"},{"type":"function","name":"createGame","inputs":[{"name":"_opponent","type":"address","internalType":"address"}],"outputs":[{"name":"","type":"uint256","internalType":"uint256"}],"stateMutability":"payable"},{"type":"function","name":"emergencyWithdraw","inputs":[{"name":"gameId","type":"uint256","internalType":"uint256"}],"outputs":[],"stateMutability":"nonpayable"},{"type":"function","name":"gameIdCounter","inputs":[],"outputs":[{"name":"","type":"uint256","internalType":"uint256"}],"stateMutability":"view"},{"type":"function","name":"games","inputs":[{"name":"","type":"uint256","internalType":"uint256"}],"outputs":[{"name":"player1","type":"address","internalType":"address"},{"name":"player2","type":"address","internalType":"address"},{"name":"wager","type":"uint256","internalType":"uint256"},{"name":"status","type":"uint8","internalType":"enum ChessWagerEscrow.GameStatus"},{"name":"result","type":"uint8","internalType":"enum ChessWagerEscrow.Result"},{"name":"lastMoveTime","type":"uint256","internalType":"uint256"},{"name":"createdAt","type":"uint256","internalType":"uint256"},{"name":"winner","type":"address","internalType":"address"}],"stateMutability":"view"},{"type":"function","name":"joinGame","inputs":[{"name":"gameId","type":"uint256","internalType":"uint256"}],"outputs":[],"stateMutability":"payable"},{"type":"function","name":"owner","inputs":[],"outputs":[{"name":"","type":"address","internalType":"address"}],"stateMutability":"view"},{"type":"function","name":"raiseDispute","inputs":[{"name":"gameId","type":"uint256","internalType":"uint256"}],"outputs":[],"stateMutability":"nonpayable"},{"type":"function","name":"refundUnjoinedGame","inputs":[{"name":"gameId","type":"uint256","internalType":"uint256"}],"outputs":[],"stateMutability":"nonpayable"},{"type":"function","name":"renounceOwnership","inputs":[],"outputs":[],"stateMutability":"nonpayable"},{"type":"function","name":"reportResult","inputs":[{"name":"gameId","type":"uint256","internalType":"uint256"},{"name":"_result","type":"uint8","internalType":"enum ChessWagerEscrow.Result"}],"outputs":[],"stateMutability":"nonpayable"},{"type":"function","name":"resolveDispute","inputs":[{"name":"gameId","type":"uint256","internalType":"uint256"},{"name":"_result","type":"uint8","internalType":"enum ChessWagerEscrow.Result"}],"outputs":[],"stateMutability":"nonpayable"},{"type":"function","name":"transferOwnership","inputs":[{"name":"newOwner","type":"address","internalType":"address"}],"outputs":[],"stateMutability":"nonpayable"},{"type":"function","name":"updateArbitrator","inputs":[{"name":"_arbitrator","type":"address","internalType":"address"}],"outputs":[],"stateMutability":"nonpayable"},{"type":"event","name":"DisputeRaised","inputs":[{"name":"gameId","type":"uint256","indexed":true,"internalType":"uint256"},{"name":"raiser","type":"address","indexed":true,"internalType":"address"}],"anonymous":false},{"type":"event","name":"DisputeResolved","inputs":[{"name":"gameId","type":"uint256","indexed":true,"internalType":"uint256"},{"name":"result","type":"uint8","indexed":false,"internalType":"enum ChessWagerEscrow.Result"},{"name":"winner","type":"address","indexed":false,"internalType":"address"}],"anonymous":false},{"type":"event","name":"GameCreated","inputs":[{"name":"gameId","type":"uint256","indexed":true,"internalType":"uint256"},{"name":"player1","type":"address","indexed":true,"internalType":"address"},{"name":"player2","type":"address","indexed":true,"internalType":"address"},{"name":"wager","type":"uint256","indexed":false,"internalType":"uint256"}],"anonymous":false},{"type":"event","name":"GameFinished","inputs":[{"name":"gameId","type":"uint256","indexed":true,"internalType":"uint256"},{"name":"result","type":"uint8","indexed":false,"internalType":"enum ChessWagerEscrow.Result"},{"name":"winner","type":"address","indexed":false,"internalType":"address"}],"anonymous":false},{"type":"event","name":"GameJoined","inputs":[{"name":"gameId","type":"uint256","indexed":true,"internalType":"uint256"},{"name":"player2","type":"address","indexed":true,"internalType":"address"}],"anonymous":false},{"type":"event","name":"GameRefunded","inputs":[{"name":"gameId","type":"uint256","indexed":true,"internalType":"uint256"},{"name":"player1","type":"address","indexed":true,"internalType":"address"}],"anonymous":false},{"type":"event","name":"OwnershipTransferred","inputs":[{"name":"previousOwner","type":"address","indexed":true,"internalType":"address"},{"name":"newOwner","type":"address","indexed":true,"internalType":"address"}],"anonymous":false},{"type":"error","name":"OwnableInvalidOwner","inputs":[{"name":"owner","type":"address","internalType":"address"}]},{"type":"error","name":"OwnableUnauthorizedAccount","inputs":[{"name":"account","type":"address","internalType":"address"}]},{"type":"error","name":"ReentrancyGuardReentrantCall","inputs":[]}],"bytecode":{"object":"0x608060405234801561000f575f5ffd5b5060405161318b38038061318b8339818101604052810190610031919061028f565b8060015f819055505f73ffffffffffffffffffffffffffffffffffffffff168173ffffffffffffffffffffffffffffffffffffffff16036100a9575f6040517f1e4fbdf70000000000000000000000000000000000000000000000000000000081526004016100a091906102dc565b60405180910390fd5b6100b88161016e60201b60201c565b505f73ffffffffffffffffffffffffffffffffffffffff168273ffffffffffffffffffffffffffffffffffffffff1603610127576040517f08c379a000000000000000000000000000000000000000000000000000000000815260040161011e9061034f565b60405180910390fd5b8160035f6101000a81548173ffffffffffffffffffffffffffffffffffffffff021916908373ffffffffffffffffffffffffffffffffffffffff160217905550505061036d565b5f60015f9054906101000a900473ffffffffffffffffffffffffffffffffffffffff1690508160015f6101000a81548173ffffffffffffffffffffffffffffffffffffffff021916908373ffffffffffffffffffffffffffffffffffffffff1602179055508173ffffffffffffffffffffffffffffffffffffffff168173ffffffffffffffffffffffffffffffffffffffff167f8be0079c531659141344cd1fd0a4f28419497f9722a3daafe3b4186f6b6457e060405160405180910390a35050565b5f5ffd5b5f73ffffffffffffffffffffffffffffffffffffffff82169050919050565b5f61025e82610235565b9050919050565b61026e81610254565b8114610278575f5ffd5b50565b5f8151905061028981610265565b92915050565b5f5f604083850312156102a5576102a4610231565b5b5f6102b28582860161027b565b92505060206102c38582860161027b565b9150509250929050565b6102d681610254565b82525050565b5f6020820190506102ef5f8301846102cd565b92915050565b5f82825260208201905092915050565b7f41726269747261746f72207265717569726564000000000000000000000000005f82015250565b5f6103396013836102f5565b915061034482610305565b602082019050919050565b5f6020820190508181035f8301526103668161032d565b9050919050565b612e118061037a5f395ff3fe6080604052600436106100f2575f3560e01c806386e773f111610089578063e55e421111610058578063e55e4211146102ed578063efaa55a014610315578063f2fde38b14610331578063f56f48f214610359576100f2565b806386e773f11461024b5780638da5cb5b14610273578063a5c1674e1461029d578063bffc243d146102c5576100f2565b8063474d0b5a116100c5578063474d0b5a146101b35780635312ea8e146101e35780636cc6cde11461020b578063715018a614610235576100f2565b80630c4223de146100f6578063117a5b901461011e5780631bb412d61461016157806337d11f6f1461018b575b5f5ffd5b348015610101575f5ffd5b5061011c600480360381019061011791906121e8565b610383565b005b348015610129575f5ffd5b50610144600480360381019061013f9190612226565b6107d8565b604051610158989796959493929190612358565b60405180910390f35b34801561016c575f5ffd5b50610175610892565b60405161018291906123d4565b60405180910390f35b348015610196575f5ffd5b506101b160048036038101906101ac9190612226565b610898565b005b6101cd60048036038101906101c89190612417565b610b84565b6040516101da91906123d4565b60405180910390f35b3480156101ee575f5ffd5b5061020960048036038101906102049190612226565b610f0a565b005b348015610216575f5ffd5b5061021f611001565b60405161022c9190612442565b60405180910390f35b348015610240575f5ffd5b50610249611026565b005b348015610256575f5ffd5b50610271600480360381019061026c9190612226565b611039565b005b34801561027e575f5ffd5b50610287611383565b6040516102949190612442565b60405180910390f35b3480156102a8575f5ffd5b506102c360048036038101906102be9190612226565b6113ab565b005b3480156102d0575f5ffd5b506102eb60048036038101906102e69190612417565b6115b5565b005b3480156102f8575f5ffd5b50610313600480360381019061030e91906121e8565b61166e565b005b61032f600480360381019061032a9190612226565b611a46565b005b34801561033c575f5ffd5b5061035760048036038101906103529190612417565b611c34565b005b348015610364575f5ffd5b5061036d611cb8565b60405161037a91906123d4565b60405180910390f35b8160045f8281526020019081526020015f205f015f9054906101000a900473ffffffffffffffffffffffffffffffffffffffff1673ffffffffffffffffffffffffffffffffffffffff163373ffffffffffffffffffffffffffffffffffffffff16148061044e575060045f8281526020019081526020015f206001015f9054906101000a900473ffffffffffffffffffffffffffffffffffffffff1673ffffffffffffffffffffffffffffffffffffffff163373ffffffffffffffffffffffffffffffffffffffff16145b61048d576040517f08c379a0000000000000000000000000000000000000000000000000000000008152600401610484906124b5565b60405180910390fd5b610495611cbf565b5f60045f8581526020019081526020015f209050600160038111156104bd576104bc61229f565b5b816003015f9054906101000a900460ff1660038111156104e0576104df61229f565b5b14610520576040517f08c379a00000000000000000000000000000000000000000000000000000000081526004016105179061251d565b60405180910390fd5b600160038111156105345761053361229f565b5b8360038111156105475761054661229f565b5b14806105775750600260038111156105625761056161229f565b5b8360038111156105755761057461229f565b5b145b806105a557506003808111156105905761058f61229f565b5b8360038111156105a3576105a261229f565b5b145b6105e4576040517f08c379a00000000000000000000000000000000000000000000000000000000081526004016105db90612585565b60405180910390fd5b600160038111156105f8576105f761229f565b5b83600381111561060b5761060a61229f565b5b0361067957805f015f9054906101000a900473ffffffffffffffffffffffffffffffffffffffff16816006015f6101000a81548173ffffffffffffffffffffffffffffffffffffffff021916908373ffffffffffffffffffffffffffffffffffffffff16021790555061070c565b6002600381111561068d5761068c61229f565b5b8360038111156106a05761069f61229f565b5b0361070b57806001015f9054906101000a900473ffffffffffffffffffffffffffffffffffffffff16816006015f6101000a81548173ffffffffffffffffffffffffffffffffffffffff021916908373ffffffffffffffffffffffffffffffffffffffff1602179055505b5b828160030160016101000a81548160ff021916908360038111156107335761073261229f565b5b02179055506002816003015f6101000a81548160ff0219169083600381111561075f5761075e61229f565b5b021790555061076d84611d03565b837f69ee1fbcfa393e8c79b43551a41fbac51daec88b1dcf8e34efe9a0e8bac70a8184836006015f9054906101000a900473ffffffffffffffffffffffffffffffffffffffff166040516107c29291906125a3565b60405180910390a2506107d3612034565b505050565b6004602052805f5260405f205f91509050805f015f9054906101000a900473ffffffffffffffffffffffffffffffffffffffff1690806001015f9054906101000a900473ffffffffffffffffffffffffffffffffffffffff1690806002015490806003015f9054906101000a900460ff16908060030160019054906101000a900460ff1690806004015490806005015490806006015f9054906101000a900473ffffffffffffffffffffffffffffffffffffffff16905088565b60025481565b6108a0611cbf565b5f60045f8381526020019081526020015f2090505f60038111156108c7576108c661229f565b5b816003015f9054906101000a900460ff1660038111156108ea576108e961229f565b5b1461092a576040517f08c379a000000000000000000000000000000000000000000000000000000000815260040161092190612614565b60405180910390fd5b805f015f9054906101000a900473ffffffffffffffffffffffffffffffffffffffff1673ffffffffffffffffffffffffffffffffffffffff163373ffffffffffffffffffffffffffffffffffffffff16146109ba576040517f08c379a00000000000000000000000000000000000000000000000000000000081526004016109b19061267c565b60405180910390fd5b6201518081600501546109cd91906126c7565b4211610a0e576040517f08c379a0000000000000000000000000000000000000000000000000000000008152600401610a0590612744565b60405180910390fd5b6002816003015f6101000a81548160ff02191690836003811115610a3557610a3461229f565b5b02179055505f81600201819055505f815f015f9054906101000a900473ffffffffffffffffffffffffffffffffffffffff1673ffffffffffffffffffffffffffffffffffffffff168260020154604051610a8e9061278f565b5f6040518083038185875af1925050503d805f8114610ac8576040519150601f19603f3d011682016040523d82523d5f602084013e610acd565b606091505b5050905080610b11576040517f08c379a0000000000000000000000000000000000000000000000000000000008152600401610b08906127ed565b60405180910390fd5b815f015f9054906101000a900473ffffffffffffffffffffffffffffffffffffffff1673ffffffffffffffffffffffffffffffffffffffff16837f5584faee46970246eaa41537ea113ddd32ead36a79c0aa4ca42728fa098197d560405160405180910390a35050610b81612034565b50565b5f610b8d611cbf565b5f3411610bcf576040517f08c379a0000000000000000000000000000000000000000000000000000000008152600401610bc690612855565b60405180910390fd5b5f73ffffffffffffffffffffffffffffffffffffffff168273ffffffffffffffffffffffffffffffffffffffff1614158015610c3757503373ffffffffffffffffffffffffffffffffffffffff168273ffffffffffffffffffffffffffffffffffffffff1614155b610c76576040517f08c379a0000000000000000000000000000000000000000000000000000000008152600401610c6d906128bd565b60405180910390fd5b60025f815480929190610c88906128db565b91905055506040518061010001604052803373ffffffffffffffffffffffffffffffffffffffff1681526020018373ffffffffffffffffffffffffffffffffffffffff1681526020013481526020015f6003811115610cea57610ce961229f565b5b81526020015f6003811115610d0257610d0161229f565b5b81526020014281526020014281526020015f73ffffffffffffffffffffffffffffffffffffffff1681525060045f60025481526020019081526020015f205f820151815f015f6101000a81548173ffffffffffffffffffffffffffffffffffffffff021916908373ffffffffffffffffffffffffffffffffffffffff1602179055506020820151816001015f6101000a81548173ffffffffffffffffffffffffffffffffffffffff021916908373ffffffffffffffffffffffffffffffffffffffff160217905550604082015181600201556060820151816003015f6101000a81548160ff02191690836003811115610dfe57610dfd61229f565b5b021790555060808201518160030160016101000a81548160ff02191690836003811115610e2e57610e2d61229f565b5b021790555060a0820151816004015560c0820151816005015560e0820151816006015f6101000a81548173ffffffffffffffffffffffffffffffffffffffff021916908373ffffffffffffffffffffffffffffffffffffffff1602179055509050508173ffffffffffffffffffffffffffffffffffffffff163373ffffffffffffffffffffffffffffffffffffffff166002547f6200407c0ea392b8107b21a9be480acd41fda186d04bed28cc7da2d4b53d56e234604051610ef091906123d4565b60405180910390a46002549050610f05612034565b919050565b610f1261203d565b610f1a611cbf565b5f60045f8381526020019081526020015f20905060016003811115610f4257610f4161229f565b5b816003015f9054906101000a900460ff166003811115610f6557610f6461229f565b5b03610fa5576040517f08c379a0000000000000000000000000000000000000000000000000000000008152600401610f9c9061296c565b60405180910390fd5b5f479050610fb1611383565b73ffffffffffffffffffffffffffffffffffffffff166108fc8290811502906040515f60405180830381858888f19350505050158015610ff3573d5f5f3e3d5ffd5b505050610ffe612034565b50565b60035f9054906101000a900473ffffffffffffffffffffffffffffffffffffffff1681565b61102e61203d565b6110375f6120c4565b565b8060045f8281526020019081526020015f205f015f9054906101000a900473ffffffffffffffffffffffffffffffffffffffff1673ffffffffffffffffffffffffffffffffffffffff163373ffffffffffffffffffffffffffffffffffffffff161480611104575060045f8281526020019081526020015f206001015f9054906101000a900473ffffffffffffffffffffffffffffffffffffffff1673ffffffffffffffffffffffffffffffffffffffff163373ffffffffffffffffffffffffffffffffffffffff16145b611143576040517f08c379a000000000000000000000000000000000000000000000000000000000815260040161113a906124b5565b60405180910390fd5b61114b611cbf565b5f60045f8481526020019081526020015f209050600160038111156111735761117261229f565b5b816003015f9054906101000a900460ff1660038111156111965761119561229f565b5b146111d6576040517f08c379a00000000000000000000000000000000000000000000000000000000081526004016111cd9061251d565b60405180910390fd5b6201518081600401546111e991906126c7565b421161122a576040517f08c379a0000000000000000000000000000000000000000000000000000000008152600401611221906129d4565b60405180910390fd5b6002816003015f6101000a81548160ff021916908360038111156112515761125061229f565b5b021790555033816006015f6101000a81548173ffffffffffffffffffffffffffffffffffffffff021916908373ffffffffffffffffffffffffffffffffffffffff160217905550805f015f9054906101000a900473ffffffffffffffffffffffffffffffffffffffff1673ffffffffffffffffffffffffffffffffffffffff163373ffffffffffffffffffffffffffffffffffffffff16146112f45760026112f7565b60015b8160030160016101000a81548160ff0219169083600381111561131d5761131c61229f565b5b021790555061132b83611d03565b827f69ee1fbcfa393e8c79b43551a41fbac51daec88b1dcf8e34efe9a0e8bac70a818260030160019054906101000a900460ff163360405161136e9291906125a3565b60405180910390a25061137f612034565b5050565b5f60015f9054906101000a900473ffffffffffffffffffffffffffffffffffffffff16905090565b8060045f8281526020019081526020015f205f015f9054906101000a900473ffffffffffffffffffffffffffffffffffffffff1673ffffffffffffffffffffffffffffffffffffffff163373ffffffffffffffffffffffffffffffffffffffff161480611476575060045f8281526020019081526020015f206001015f9054906101000a900473ffffffffffffffffffffffffffffffffffffffff1673ffffffffffffffffffffffffffffffffffffffff163373ffffffffffffffffffffffffffffffffffffffff16145b6114b5576040517f08c379a00000000000000000000000000000000000000000000000000000000081526004016114ac906124b5565b60405180910390fd5b5f60045f8481526020019081526020015f209050600160038111156114dd576114dc61229f565b5b816003015f9054906101000a900460ff166003811115611500576114ff61229f565b5b14611540576040517f08c379a00000000000000000000000000000000000000000000000000000000081526004016115379061251d565b60405180910390fd5b6003816003015f6101000a81548160ff021916908360038111156115675761156661229f565b5b02179055503373ffffffffffffffffffffffffffffffffffffffff16837f84a477df8a28a4276ca6dee4458a06c3015f30c477d9c949ede4e13ff8a552b460405160405180910390a3505050565b6115bd61203d565b5f73ffffffffffffffffffffffffffffffffffffffff168173ffffffffffffffffffffffffffffffffffffffff160361162b576040517f08c379a000000000000000000000000000000000000000000000000000000000815260040161162290612a3c565b60405180910390fd5b8060035f6101000a81548173ffffffffffffffffffffffffffffffffffffffff021916908373ffffffffffffffffffffffffffffffffffffffff16021790555050565b60035f9054906101000a900473ffffffffffffffffffffffffffffffffffffffff1673ffffffffffffffffffffffffffffffffffffffff163373ffffffffffffffffffffffffffffffffffffffff16146116fd576040517f08c379a00000000000000000000000000000000000000000000000000000000081526004016116f490612aa4565b60405180910390fd5b611705611cbf565b5f60045f8481526020019081526020015f20905060038081111561172c5761172b61229f565b5b816003015f9054906101000a900460ff16600381111561174f5761174e61229f565b5b1461178f576040517f08c379a000000000000000000000000000000000000000000000000000000000815260040161178690612b0c565b60405180910390fd5b600160038111156117a3576117a261229f565b5b8260038111156117b6576117b561229f565b5b14806117e65750600260038111156117d1576117d061229f565b5b8260038111156117e4576117e361229f565b5b145b8061181457506003808111156117ff576117fe61229f565b5b8260038111156118125761181161229f565b5b145b611853576040517f08c379a000000000000000000000000000000000000000000000000000000000815260040161184a90612585565b60405180910390fd5b600160038111156118675761186661229f565b5b82600381111561187a5761187961229f565b5b036118e857805f015f9054906101000a900473ffffffffffffffffffffffffffffffffffffffff16816006015f6101000a81548173ffffffffffffffffffffffffffffffffffffffff021916908373ffffffffffffffffffffffffffffffffffffffff16021790555061197b565b600260038111156118fc576118fb61229f565b5b82600381111561190f5761190e61229f565b5b0361197a57806001015f9054906101000a900473ffffffffffffffffffffffffffffffffffffffff16816006015f6101000a81548173ffffffffffffffffffffffffffffffffffffffff021916908373ffffffffffffffffffffffffffffffffffffffff1602179055505b5b818160030160016101000a81548160ff021916908360038111156119a2576119a161229f565b5b02179055506002816003015f6101000a81548160ff021916908360038111156119ce576119cd61229f565b5b02179055506119dc83611d03565b827fd479d35c2c3aee3d59f9972a1214f8effa0c54c4f8ff4dcf020913c0a5e27c6283836006015f9054906101000a900473ffffffffffffffffffffffffffffffffffffffff16604051611a319291906125a3565b60405180910390a250611a42612034565b5050565b611a4e611cbf565b5f60045f8381526020019081526020015f2090505f6003811115611a7557611a7461229f565b5b816003015f9054906101000a900460ff166003811115611a9857611a9761229f565b5b14611ad8576040517f08c379a0000000000000000000000000000000000000000000000000000000008152600401611acf90612b74565b60405180910390fd5b80600201543414611b1e576040517f08c379a0000000000000000000000000000000000000000000000000000000008152600401611b1590612bdc565b60405180910390fd5b806001015f9054906101000a900473ffffffffffffffffffffffffffffffffffffffff1673ffffffffffffffffffffffffffffffffffffffff163373ffffffffffffffffffffffffffffffffffffffff1614611baf576040517f08c379a0000000000000000000000000000000000000000000000000000000008152600401611ba690612c44565b60405180910390fd5b6001816003015f6101000a81548160ff02191690836003811115611bd657611bd561229f565b5b02179055504281600401819055503373ffffffffffffffffffffffffffffffffffffffff16827f45c4f9cbafe186141862608c493f28b823fde4c2142bedc3f5169961a73fdd2260405160405180910390a350611c31612034565b50565b611c3c61203d565b5f73ffffffffffffffffffffffffffffffffffffffff168173ffffffffffffffffffffffffffffffffffffffff1603611cac575f6040517f1e4fbdf7000000000000000000000000000000000000000000000000000000008152600401611ca39190612442565b60405180910390fd5b611cb5816120c4565b50565b6201518081565b60025f5403611cfa576040517f3ee5aeb500000000000000000000000000000000000000000000000000000000815260040160405180910390fd5b60025f81905550565b5f60045f8381526020019081526020015f2090505f60028260020154611d299190612c62565b9050600380811115611d3e57611d3d61229f565b5b8260030160019054906101000a900460ff166003811115611d6257611d6161229f565b5b03611f0b575f825f015f9054906101000a900473ffffffffffffffffffffffffffffffffffffffff1673ffffffffffffffffffffffffffffffffffffffff168360020154604051611db29061278f565b5f6040518083038185875af1925050503d805f8114611dec576040519150601f19603f3d011682016040523d82523d5f602084013e611df1565b606091505b5050905080611e35576040517f08c379a0000000000000000000000000000000000000000000000000000000008152600401611e2c90612ced565b60405180910390fd5b5f836001015f9054906101000a900473ffffffffffffffffffffffffffffffffffffffff1673ffffffffffffffffffffffffffffffffffffffff168460020154604051611e819061278f565b5f6040518083038185875af1925050503d805f8114611ebb576040519150601f19603f3d011682016040523d82523d5f602084013e611ec0565b606091505b5050905080611f04576040517f08c379a0000000000000000000000000000000000000000000000000000000008152600401611efb90612d55565b60405180910390fd5b505061202f565b5f73ffffffffffffffffffffffffffffffffffffffff16826006015f9054906101000a900473ffffffffffffffffffffffffffffffffffffffff1673ffffffffffffffffffffffffffffffffffffffff161461202e575f826006015f9054906101000a900473ffffffffffffffffffffffffffffffffffffffff1673ffffffffffffffffffffffffffffffffffffffff1682604051611fa99061278f565b5f6040518083038185875af1925050503d805f8114611fe3576040519150601f19603f3d011682016040523d82523d5f602084013e611fe8565b606091505b505090508061202c576040517f08c379a000000000000000000000000000000000000000000000000000000000815260040161202390612dbd565b60405180910390fd5b505b5b505050565b60015f81905550565b612045612187565b73ffffffffffffffffffffffffffffffffffffffff16612063611383565b73ffffffffffffffffffffffffffffffffffffffff16146120c257612086612187565b6040517f118cdaa70000000000000000000000000000000000000000000000000000000081526004016120b99190612442565b60405180910390fd5b565b5f60015f9054906101000a900473ffffffffffffffffffffffffffffffffffffffff1690508160015f6101000a81548173ffffffffffffffffffffffffffffffffffffffff021916908373ffffffffffffffffffffffffffffffffffffffff1602179055508173ffffffffffffffffffffffffffffffffffffffff168173ffffffffffffffffffffffffffffffffffffffff167f8be0079c531659141344cd1fd0a4f28419497f9722a3daafe3b4186f6b6457e060405160405180910390a35050565b5f33905090565b5f5ffd5b5f819050919050565b6121a481612192565b81146121ae575f5ffd5b50565b5f813590506121bf8161219b565b92915050565b600481106121d1575f5ffd5b50565b5f813590506121e2816121c5565b92915050565b5f5f604083850312156121fe576121fd61218e565b5b5f61220b858286016121b1565b925050602061221c858286016121d4565b9150509250929050565b5f6020828403121561223b5761223a61218e565b5b5f612248848285016121b1565b91505092915050565b5f73ffffffffffffffffffffffffffffffffffffffff82169050919050565b5f61227a82612251565b9050919050565b61228a81612270565b82525050565b61229981612192565b82525050565b7f4e487b71000000000000000000000000000000000000000000000000000000005f52602160045260245ffd5b600481106122dd576122dc61229f565b5b50565b5f8190506122ed826122cc565b919050565b5f6122fc826122e0565b9050919050565b61230c816122f2565b82525050565b600481106123235761232261229f565b5b50565b5f81905061233382612312565b919050565b5f61234282612326565b9050919050565b61235281612338565b82525050565b5f6101008201905061236c5f83018b612281565b612379602083018a612281565b6123866040830189612290565b6123936060830188612303565b6123a06080830187612349565b6123ad60a0830186612290565b6123ba60c0830185612290565b6123c760e0830184612281565b9998505050505050505050565b5f6020820190506123e75f830184612290565b92915050565b6123f681612270565b8114612400575f5ffd5b50565b5f81359050612411816123ed565b92915050565b5f6020828403121561242c5761242b61218e565b5b5f61243984828501612403565b91505092915050565b5f6020820190506124555f830184612281565b92915050565b5f82825260208201905092915050565b7f4e6f74206120706c6179657200000000000000000000000000000000000000005f82015250565b5f61249f600c8361245b565b91506124aa8261246b565b602082019050919050565b5f6020820190508181035f8301526124cc81612493565b9050919050565b7f4e6f74206f6e676f696e670000000000000000000000000000000000000000005f82015250565b5f612507600b8361245b565b9150612512826124d3565b602082019050919050565b5f6020820190508181035f830152612534816124fb565b9050919050565b7f496e76616c696420726573756c740000000000000000000000000000000000005f82015250565b5f61256f600e8361245b565b915061257a8261253b565b602082019050919050565b5f6020820190508181035f83015261259c81612563565b9050919050565b5f6040820190506125b65f830185612349565b6125c36020830184612281565b9392505050565b7f47616d65206e6f7420726566756e6461626c65000000000000000000000000005f82015250565b5f6125fe60138361245b565b9150612609826125ca565b602082019050919050565b5f6020820190508181035f83015261262b816125f2565b9050919050565b7f4f6e6c792063726561746f722063616e20726566756e640000000000000000005f82015250565b5f61266660178361245b565b915061267182612632565b602082019050919050565b5f6020820190508181035f8301526126938161265a565b9050919050565b7f4e487b71000000000000000000000000000000000000000000000000000000005f52601160045260245ffd5b5f6126d182612192565b91506126dc83612192565b92508282019050808211156126f4576126f361269a565b5b92915050565b7f526566756e642074696d656f7574206e6f7420726561636865640000000000005f82015250565b5f61272e601a8361245b565b9150612739826126fa565b602082019050919050565b5f6020820190508181035f83015261275b81612722565b9050919050565b5f81905092915050565b50565b5f61277a5f83612762565b91506127858261276c565b5f82019050919050565b5f6127998261276f565b9150819050919050565b7f526566756e64206661696c6564000000000000000000000000000000000000005f82015250565b5f6127d7600d8361245b565b91506127e2826127a3565b602082019050919050565b5f6020820190508181035f830152612804816127cb565b9050919050565b7f57616765722072657175697265640000000000000000000000000000000000005f82015250565b5f61283f600e8361245b565b915061284a8261280b565b602082019050919050565b5f6020820190508181035f83015261286c81612833565b9050919050565b7f496e76616c6964206f70706f6e656e74000000000000000000000000000000005f82015250565b5f6128a760108361245b565b91506128b282612873565b602082019050919050565b5f6020820190508181035f8301526128d48161289b565b9050919050565b5f6128e582612192565b91507fffffffffffffffffffffffffffffffffffffffffffffffffffffffffffffffff82036129175761291661269a565b5b600182019050919050565b7f47616d65207374696c6c206163746976650000000000000000000000000000005f82015250565b5f61295660118361245b565b915061296182612922565b602082019050919050565b5f6020820190508181035f8301526129838161294a565b9050919050565b7f54696d656f7574206e6f742072656163686564000000000000000000000000005f82015250565b5f6129be60138361245b565b91506129c98261298a565b602082019050919050565b5f6020820190508181035f8301526129eb816129b2565b9050919050565b7f496e76616c69642061726269747261746f7200000000000000000000000000005f82015250565b5f612a2660128361245b565b9150612a31826129f2565b602082019050919050565b5f6020820190508181035f830152612a5381612a1a565b9050919050565b7f4e6f742061726269747261746f720000000000000000000000000000000000005f82015250565b5f612a8e600e8361245b565b9150612a9982612a5a565b602082019050919050565b5f6020820190508181035f830152612abb81612a82565b9050919050565b7f4e6f7420646973707574656400000000000000000000000000000000000000005f82015250565b5f612af6600c8361245b565b9150612b0182612ac2565b602082019050919050565b5f6020820190508181035f830152612b2381612aea565b9050919050565b7f47616d65206e6f74206a6f696e61626c650000000000000000000000000000005f82015250565b5f612b5e60118361245b565b9150612b6982612b2a565b602082019050919050565b5f6020820190508181035f830152612b8b81612b52565b9050919050565b7f5761676572206d69736d617463680000000000000000000000000000000000005f82015250565b5f612bc6600e8361245b565b9150612bd182612b92565b602082019050919050565b5f6020820190508181035f830152612bf381612bba565b9050919050565b7f4e6f7420696e76697465640000000000000000000000000000000000000000005f82015250565b5f612c2e600b8361245b565b9150612c3982612bfa565b602082019050919050565b5f6020820190508181035f830152612c5b81612c22565b9050919050565b5f612c6c82612192565b9150612c7783612192565b9250828202612c8581612192565b91508282048414831517612c9c57612c9b61269a565b5b5092915050565b7f5061796f7574206661696c65643a20706c6179657231000000000000000000005f82015250565b5f612cd760168361245b565b9150612ce282612ca3565b602082019050919050565b5f6020820190508181035f830152612d0481612ccb565b9050919050565b7f5061796f7574206661696c65643a20706c6179657232000000000000000000005f82015250565b5f612d3f60168361245b565b9150612d4a82612d0b565b602082019050919050565b5f6020820190508181035f830152612d6c81612d33565b9050919050565b7f5061796f7574206661696c65643a2077696e6e657200000000000000000000005f82015250565b5f612da760158361245b565b9150612db282612d73565b602082019050919050565b5f6020820190508181035f830152612dd481612d9b565b905091905056fea2646970667358221220ea81a5dc8cfd24a93246cae689c0ddaf429e241b87fa3d48ef73f093c599dc0264736f6c634300081c0033","linkReferences":{}},"methodIdentifiers":{"TIMEOUT()":"f56f48f2","arbitrator()":"6cc6cde1","claimTimeout(uint256)":"86e773f1","createGame(address)":"474d0b5a","emergencyWithdraw(uint256)":"5312ea8e","gameIdCounter()":"1bb412d6","games(uint256)":"117a5b90","joinGame(uint256)":"efaa55a0","owner()":"8da5cb5b","raiseDispute(uint256)":"a5c1674e","refundUnjoinedGame(uint256)":"37d11f6f","renounceOwnership()":"715018a6","reportResult(uint256,uint8)":"0c4223de","resolveDispute(uint256,uint8)":"e55e4211","transferOwnership(address)":"f2fde38b","updateArbitrator(address)":"bffc243d"},"id":0}